{
  "contractName": "DiplomaRegistry",
  "abi": [
    {
      "anonymous": false,
      "inputs": [
        {
          "indexed": false,
          "internalType": "bytes32",
          "name": "hash",
          "type": "bytes32"
        },
        {
          "indexed": false,
          "internalType": "uint256",
          "name": "id",
          "type": "uint256"
        },
        {
          "indexed": false,
          "internalType": "string",
          "name": "studentName",
          "type": "string"
        },
        {
          "indexed": false,
          "internalType": "string",
          "name": "course",
          "type": "string"
        },
        {
          "indexed": false,
          "internalType": "string",
          "name": "institution",
          "type": "string"
        },
        {
          "indexed": false,
          "internalType": "uint256",
          "name": "date",
          "type": "uint256"
        },
        {
          "indexed": false,
          "internalType": "string",
          "name": "studentId",
          "type": "string"
        }
      ],
      "name": "DiplomaRegistered",
      "type": "event"
    },
    {
      "anonymous": false,
      "inputs": [
        {
          "indexed": false,
          "internalType": "string",
          "name": "reason",
          "type": "string"
        }
      ],
      "name": "RegistrationFailed",
      "type": "event"
    },
    {
      "inputs": [
        {
          "internalType": "string",
          "name": "studentName",
          "type": "string"
        },
        {
          "internalType": "string",
          "name": "course",
          "type": "string"
        },
        {
          "internalType": "string",
          "name": "institution",
          "type": "string"
        },
        {
          "internalType": "uint256",
          "name": "date",
          "type": "uint256"
        },
        {
          "internalType": "string",
          "name": "studentId",
          "type": "string"
        }
      ],
      "name": "registerDiploma",
      "outputs": [
        {
          "internalType": "string",
          "name": "",
          "type": "string"
        },
        {
          "internalType": "bytes32",
          "name": "",
          "type": "bytes32"
        }
      ],
      "stateMutability": "nonpayable",
      "type": "function"
    },
    {
      "inputs": [
        {
          "internalType": "bytes32",
          "name": "hash",
          "type": "bytes32"
        }
      ],
      "name": "getDiploma",
      "outputs": [
        {
          "internalType": "uint256",
          "name": "",
          "type": "uint256"
        },
        {
          "internalType": "string",
          "name": "",
          "type": "string"
        },
        {
          "internalType": "string",
          "name": "",
          "type": "string"
        },
        {
          "internalType": "string",
          "name": "",
          "type": "string"
        },
        {
          "internalType": "uint256",
          "name": "",
          "type": "uint256"
        },
        {
          "internalType": "string",
          "name": "",
          "type": "string"
        }
      ],
      "stateMutability": "view",
      "type": "function"
    }
  ],
  "bytecode": "0x608060405234801561000f575f80fd5b50610f258061001d5f395ff3fe608060405234801561000f575f80fd5b5060043610610034575f3560e01c80632ac76e4a146100385780632b04cb7714610069575b5f80fd5b610052600480360381019061004d919061072c565b61009e565b6040516100609291906108a5565b60405180910390f35b610083600480360381019061007e91906108fd565b6102c4565b60405161009596959493929190610937565b60405180910390f35b60605f6001836040516100b191906109ec565b90815260200160405180910390205f9054906101000a900460ff161561012f577f43417c44524929fe1d71c1986850f5bd67a217353000153a03965e72cd6fcf086040516100fe90610a72565b60405180910390a15f6040518060600160405280602b8152602001610ec5602b913990805f1b9050915091506102ba565b5f61013d8888888888610571565b90506040518060c001604052806002548152602001898152602001888152602001878152602001868152602001858152505f808381526020019081526020015f205f820151815f0155602082015181600101908161019b9190610c8a565b5060408201518160020190816101b19190610c8a565b5060608201518160030190816101c79190610c8a565b506080820151816004015560a08201518160050190816101e79190610c8a565b50905050600180856040516101fc91906109ec565b90815260200160405180910390205f6101000a81548160ff0219169083151502179055507fab234047e7cf8ad00532a251ed424f16348199534f4073bc62a41620c6961183816002548a8a8a8a8a60405161025d9796959493929190610d59565b60405180910390a160025f81548092919061027790610e0f565b9190505550806040518060400160405280602081526020017f4469706c6f6d61207375636365737366756c6c7920726567697374657265642e8152509092509250505b9550959350505050565b5f60608060605f60605f805f8981526020019081526020015f206040518060c00160405290815f820154815260200160018201805461030290610abd565b80601f016020809104026020016040519081016040528092919081815260200182805461032e90610abd565b80156103795780601f1061035057610100808354040283529160200191610379565b820191905f5260205f20905b81548152906001019060200180831161035c57829003601f168201915b5050505050815260200160028201805461039290610abd565b80601f01602080910402602001604051908101604052809291908181526020018280546103be90610abd565b80156104095780601f106103e057610100808354040283529160200191610409565b820191905f5260205f20905b8154815290600101906020018083116103ec57829003601f168201915b5050505050815260200160038201805461042290610abd565b80601f016020809104026020016040519081016040528092919081815260200182805461044e90610abd565b80156104995780601f1061047057610100808354040283529160200191610499565b820191905f5260205f20905b81548152906001019060200180831161047c57829003601f168201915b50505050508152602001600482015481526020016005820180546104bc90610abd565b80601f01602080910402602001604051908101604052809291908181526020018280546104e890610abd565b80156105335780601f1061050a57610100808354040283529160200191610533565b820191905f5260205f20905b81548152906001019060200180831161051657829003601f168201915b5050505050815250509050805f015181602001518260400151836060015184608001518560a001519650965096509650965096505091939550919395565b5f858585858560405160200161058b959493929190610e76565b60405160208183030381529060405280519060200120905095945050505050565b5f604051905090565b5f80fd5b5f80fd5b5f80fd5b5f80fd5b5f601f19601f8301169050919050565b7f4e487b71000000000000000000000000000000000000000000000000000000005f52604160045260245ffd5b61060b826105c5565b810181811067ffffffffffffffff8211171561062a576106296105d5565b5b80604052505050565b5f61063c6105ac565b90506106488282610602565b919050565b5f67ffffffffffffffff821115610667576106666105d5565b5b610670826105c5565b9050602081019050919050565b828183375f83830152505050565b5f61069d6106988461064d565b610633565b9050828152602081018484840111156106b9576106b86105c1565b5b6106c484828561067d565b509392505050565b5f82601f8301126106e0576106df6105bd565b5b81356106f084826020860161068b565b91505092915050565b5f819050919050565b61070b816106f9565b8114610715575f80fd5b50565b5f8135905061072681610702565b92915050565b5f805f805f60a08688031215610745576107446105b5565b5b5f86013567ffffffffffffffff811115610762576107616105b9565b5b61076e888289016106cc565b955050602086013567ffffffffffffffff81111561078f5761078e6105b9565b5b61079b888289016106cc565b945050604086013567ffffffffffffffff8111156107bc576107bb6105b9565b5b6107c8888289016106cc565b93505060606107d988828901610718565b925050608086013567ffffffffffffffff8111156107fa576107f96105b9565b5b610806888289016106cc565b9150509295509295909350565b5f81519050919050565b5f82825260208201905092915050565b5f5b8381101561084a57808201518184015260208101905061082f565b5f8484015250505050565b5f61085f82610813565b610869818561081d565b935061087981856020860161082d565b610882816105c5565b840191505092915050565b5f819050919050565b61089f8161088d565b82525050565b5f6040820190508181035f8301526108bd8185610855565b90506108cc6020830184610896565b9392505050565b6108dc8161088d565b81146108e6575f80fd5b50565b5f813590506108f7816108d3565b92915050565b5f60208284031215610912576109116105b5565b5b5f61091f848285016108e9565b91505092915050565b610931816106f9565b82525050565b5f60c08201905061094a5f830189610928565b818103602083015261095c8188610855565b905081810360408301526109708187610855565b905081810360608301526109848186610855565b90506109936080830185610928565b81810360a08301526109a58184610855565b9050979650505050505050565b5f81905092915050565b5f6109c682610813565b6109d081856109b2565b93506109e081856020860161082d565b80840191505092915050565b5f6109f782846109bc565b915081905092915050565b7f4469706c6f6d6120616c72656164792065786973747320666f722074686973205f8201527f73747564656e742049442e000000000000000000000000000000000000000000602082015250565b5f610a5c602b8361081d565b9150610a6782610a02565b604082019050919050565b5f6020820190508181035f830152610a8981610a50565b9050919050565b7f4e487b71000000000000000000000000000000000000000000000000000000005f52602260045260245ffd5b5f6002820490506001821680610ad457607f821691505b602082108103610ae757610ae6610a90565b5b50919050565b5f819050815f5260205f209050919050565b5f6020601f8301049050919050565b5f82821b905092915050565b5f60088302610b497fffffffffffffffffffffffffffffffffffffffffffffffffffffffffffffffff82610b0e565b610b538683610b0e565b95508019841693508086168417925050509392505050565b5f819050919050565b5f610b8e610b89610b84846106f9565b610b6b565b6106f9565b9050919050565b5f819050919050565b610ba783610b74565b610bbb610bb382610b95565b848454610b1a565b825550505050565b5f90565b610bcf610bc3565b610bda818484610b9e565b505050565b5b81811015610bfd57610bf25f82610bc7565b600181019050610be0565b5050565b601f821115610c4257610c1381610aed565b610c1c84610aff565b81016020851015610c2b578190505b610c3f610c3785610aff565b830182610bdf565b50505b505050565b5f82821c905092915050565b5f610c625f1984600802610c47565b1980831691505092915050565b5f610c7a8383610c53565b9150826002028217905092915050565b610c9382610813565b67ffffffffffffffff811115610cac57610cab6105d5565b5b610cb68254610abd565b610cc1828285610c01565b5f60209050601f831160018114610cf2575f8415610ce0578287015190505b610cea8582610c6f565b865550610d51565b601f198416610d0086610aed565b5f5b82811015610d2757848901518255600182019150602085019450602081019050610d02565b86831015610d445784890151610d40601f891682610c53565b8355505b6001600288020188555050505b505050505050565b5f60e082019050610d6c5f83018a610896565b610d796020830189610928565b8181036040830152610d8b8188610855565b90508181036060830152610d9f8187610855565b90508181036080830152610db38186610855565b9050610dc260a0830185610928565b81810360c0830152610dd48184610855565b905098975050505050505050565b7f4e487b71000000000000000000000000000000000000000000000000000000005f52601160045260245ffd5b5f610e19826106f9565b91507fffffffffffffffffffffffffffffffffffffffffffffffffffffffffffffffff8203610e4b57610e4a610de2565b5b600182019050919050565b5f819050919050565b610e70610e6b826106f9565b610e56565b82525050565b5f610e8182886109bc565b9150610e8d82876109bc565b9150610e9982866109bc565b9150610ea58285610e5f565b602082019150610eb582846109bc565b9150819050969550505050505056fe4469706c6f6d6120616c72656164792065786973747320666f7220746869732073747564656e742049442ea2646970667358221220076691b821ff8ff6fa023d98ff9091cf4e9b0db97afe10130e820cc69d50c18964736f6c63430008150033",
  "immutableReferences": {},
  "source": "// SPDX-License-Identifier: MIT\r\npragma solidity ^0.8.0;\r\n\r\ncontract DiplomaRegistry {\r\n    struct Diploma {\r\n        uint id;\r\n        string studentName;\r\n        string course;\r\n        string institution;\r\n        uint date;\r\n        string studentId; // Matricula do aluno\r\n    }\r\n\r\n    mapping(bytes32 => Diploma) private diplomas;\r\n    mapping(string => bool) private studentIds; // Para verificar a existncia de um diploma por matrcula\r\n    uint private nextId;\r\n\r\n    event DiplomaRegistered(bytes32 hash, uint id, string studentName, string course, string institution, uint date, string studentId);\r\n    event RegistrationFailed(string reason);\r\n\r\n    function generateDiplomaHash(string memory studentName, string memory course, string memory institution, uint date, string memory studentId) private pure returns (bytes32) {\r\n        return keccak256(abi.encodePacked(studentName, course, institution, date, studentId));\r\n    }\r\n\r\n    function registerDiploma(string memory studentName, string memory course, string memory institution, uint date, string memory studentId) public returns (string memory, bytes32) {\r\n        if (studentIds[studentId]) {\r\n            emit RegistrationFailed(\"Diploma already exists for this student ID.\");\r\n            return (\"Diploma already exists for this student ID.\", 0);\r\n        }\r\n\r\n        bytes32 diplomaHash = generateDiplomaHash(studentName, course, institution, date, studentId);\r\n        diplomas[diplomaHash] = Diploma(nextId, studentName, course, institution, date, studentId);\r\n        studentIds[studentId] = true;\r\n        emit DiplomaRegistered(diplomaHash, nextId, studentName, course, institution, date, studentId);\r\n        nextId++;\r\n        return (\"Diploma successfully registered.\", diplomaHash);\r\n    }\r\n\r\n    function getDiploma(bytes32 hash) public view returns (uint, string memory, string memory, string memory, uint, string memory) {\r\n        Diploma memory diploma = diplomas[hash];\r\n        return (diploma.id, diploma.studentName, diploma.course, diploma.institution, diploma.date, diploma.studentId);\r\n    }\r\n}",
  "sourcePath": "C:\\PI\\Blockchain\\ValAdemic\\contracts\\ValAdemic.sol",
  "compiler": {
    "name": "solc",
    "version": "0.8.21+commit.d9974bed.Emscripten.clang"
  },
  "schemaVersion": "3.4.16",
  "updatedAt": "2024-05-27T23:32:31.623Z",
  "devdoc": {
    "kind": "dev",
    "methods": {},
    "version": 1
  },
  "userdoc": {
    "kind": "user",
    "methods": {},
    "version": 1
  }
}