{
  "contractName": "ValAdemic",
  "abi": [
    {
      "anonymous": false,
      "inputs": [
        {
          "indexed": false,
          "name": "hash",
          "type": "bytes32"
        },
        {
          "indexed": false,
          "name": "studentName",
          "type": "string"
        },
        {
          "indexed": false,
          "name": "institution",
          "type": "string"
        },
        {
          "indexed": false,
          "name": "date",
          "type": "uint256"
        },
        {
          "indexed": false,
          "name": "studentId",
          "type": "string"
        }
      ],
      "name": "DiplomaRegistered",
      "type": "event"
    },
    {
      "constant": false,
      "inputs": [
        {
          "name": "studentName",
          "type": "string"
        },
        {
          "name": "studentId",
          "type": "string"
        },
        {
          "name": "institution",
          "type": "string"
        },
        {
          "name": "date",
          "type": "uint256"
        }
      ],
      "name": "registerDiploma",
      "outputs": [
        {
          "name": "",
          "type": "string"
        },
        {
          "name": "",
          "type": "bytes32"
        }
      ],
      "payable": false,
      "stateMutability": "nonpayable",
      "type": "function"
    },
    {
      "constant": true,
      "inputs": [
        {
          "name": "hash",
          "type": "bytes32"
        }
      ],
      "name": "getDiploma",
      "outputs": [
        {
          "name": "",
          "type": "string"
        },
        {
          "name": "",
          "type": "string"
        },
        {
          "name": "",
          "type": "string"
        },
        {
          "name": "",
          "type": "uint256"
        }
      ],
      "payable": false,
      "stateMutability": "view",
      "type": "function"
    }
  ],
  "bytecode": "0x608060405234801561001057600080fd5b50610e59806100206000396000f3fe608060405260043610610046576000357c0100000000000000000000000000000000000000000000000000000000900480632b04cb771461004b57806365bb3ad9146101de575b600080fd5b34801561005757600080fd5b506100846004803603602081101561006e57600080fd5b810190808035906020019092919050505061045e565b60405180806020018060200180602001858152602001848103845288818151815260200191508051906020019080838360005b838110156100d25780820151818401526020810190506100b7565b50505050905090810190601f1680156100ff5780820380516001836020036101000a031916815260200191505b50848103835287818151815260200191508051906020019080838360005b8381101561013857808201518184015260208101905061011d565b50505050905090810190601f1680156101655780820380516001836020036101000a031916815260200191505b50848103825286818151815260200191508051906020019080838360005b8381101561019e578082015181840152602081019050610183565b50505050905090810190601f1680156101cb5780820380516001836020036101000a031916815260200191505b5097505050505050505060405180910390f35b3480156101ea57600080fd5b506103dc6004803603608081101561020157600080fd5b810190808035906020019064010000000081111561021e57600080fd5b82018360208201111561023057600080fd5b8035906020019184600183028401116401000000008311171561025257600080fd5b91908080601f016020809104026020016040519081016040528093929190818152602001838380828437600081840152601f19601f820116905080830192505050505050509192919290803590602001906401000000008111156102b557600080fd5b8201836020820111156102c757600080fd5b803590602001918460018302840111640100000000831117156102e957600080fd5b91908080601f016020809104026020016040519081016040528093929190818152602001838380828437600081840152601f19601f8201169050808301925050505050505091929192908035906020019064010000000081111561034c57600080fd5b82018360208201111561035e57600080fd5b8035906020019184600183028401116401000000008311171561038057600080fd5b91908080601f016020809104026020016040519081016040528093929190818152602001838380828437600081840152601f19601f82011690508083019250505050505050919291929080359060200190929190505050610732565b6040518080602001838152602001828103825284818151815260200191508051906020019080838360005b83811015610422578082015181840152602081019050610407565b50505050905090810190601f16801561044f5780820380516001836020036101000a031916815260200191505b50935050505060405180910390f35b6060806060600061046d610d55565b60008087815260200190815260200160002060a06040519081016040529081600082018054600181600116156101000203166002900480601f0160208091040260200160405190810160405280929190818152602001828054600181600116156101000203166002900480156105245780601f106104f957610100808354040283529160200191610524565b820191906000526020600020905b81548152906001019060200180831161050757829003601f168201915b50505050508152602001600182018054600181600116156101000203166002900480601f0160208091040260200160405190810160405280929190818152602001828054600181600116156101000203166002900480156105c65780601f1061059b576101008083540402835291602001916105c6565b820191906000526020600020905b8154815290600101906020018083116105a957829003601f168201915b50505050508152602001600282018054600181600116156101000203166002900480601f0160208091040260200160405190810160405280929190818152602001828054600181600116156101000203166002900480156106685780601f1061063d57610100808354040283529160200191610668565b820191906000526020600020905b81548152906001019060200180831161064b57829003601f168201915b50505050508152602001600382015481526020016004820154815250509050600081600001515114151515610705576040517f08c379a00000000000000000000000000000000000000000000000000000000081526004018080602001828103825260178152602001807f4469706c6f6d61206e616f20656e636f6e747261646f2e00000000000000000081525060200191505060405180910390fd5b80600001518160200151826040015183606001518393508292508191509450945094509450509193509193565b606060006001856040518082805190602001908083835b60208310151561076e5780518252602082019150602081019050602083039250610749565b6001836020036101000a0380198251168184511680821785525050505050509050019150509081526020016040518091039020846040518082805190602001908083835b6020831015156107d757805182526020820191506020810190506020830392506107b2565b6001836020036101000a038019825116818451168082178552505050505050905001915050908152602001604051809103902060009054906101000a900460ff161515156108b3576040517f08c379a000000000000000000000000000000000000000000000000000000000815260040180806020018281038252603e8152602001807f4469706c6f6d61206a612065786973746520706172612065737465204944206481526020017f65206573747564616e7465206e6573746120696e73746974756963616f2e000081525060400191505060405180910390fd5b60006108c187878787610c23565b905060a060405190810160405280888152602001878152602001868152602001858152602001828152506000808381526020019081526020016000206000820151816000019080519060200190610919929190610d88565b506020820151816001019080519060200190610936929190610d88565b506040820151816002019080519060200190610953929190610d88565b506060820151816003015560808201518160040155905050600180876040518082805190602001908083835b6020831015156109a4578051825260208201915060208101905060208303925061097f565b6001836020036101000a0380198251168184511680821785525050505050509050019150509081526020016040518091039020866040518082805190602001908083835b602083101515610a0d57805182526020820191506020810190506020830392506109e8565b6001836020036101000a038019825116818451168082178552505050505050905001915050908152602001604051809103902060006101000a81548160ff0219169083151502179055507fa584ab88e004f334d178b821fb701df554b2f7e168c93a461fecd1c814785576818887878a60405180868152602001806020018060200185815260200180602001848103845288818151815260200191508051906020019080838360005b83811015610ad1578082015181840152602081019050610ab6565b50505050905090810190601f168015610afe5780820380516001836020036101000a031916815260200191505b50848103835287818151815260200191508051906020019080838360005b83811015610b37578082015181840152602081019050610b1c565b50505050905090810190601f168015610b645780820380516001836020036101000a031916815260200191505b50848103825285818151815260200191508051906020019080838360005b83811015610b9d578082015181840152602081019050610b82565b50505050905090810190601f168015610bca5780820380516001836020036101000a031916815260200191505b509850505050505050505060405180910390a1806040805190810160405280601f81526020017f4469706c6f6d61207265676973747261646f20636f6d207375636573736f2e0081525090925092505094509492505050565b6000848484846040516020018085805190602001908083835b602083101515610c615780518252602082019150602081019050602083039250610c3c565b6001836020036101000a03801982511681845116808217855250505050505090500184805190602001908083835b602083101515610cb45780518252602082019150602081019050602083039250610c8f565b6001836020036101000a03801982511681845116808217855250505050505090500183805190602001908083835b602083101515610d075780518252602082019150602081019050602083039250610ce2565b6001836020036101000a038019825116818451168082178552505050505050905001828152602001945050505050604051602081830303815290604052805190602001209050949350505050565b60a06040519081016040528060608152602001606081526020016060815260200160008152602001600080191681525090565b828054600181600116156101000203166002900490600052602060002090601f016020900481019282601f10610dc957805160ff1916838001178555610df7565b82800160010185558215610df7579182015b82811115610df6578251825591602001919060010190610ddb565b5b509050610e049190610e08565b5090565b610e2a91905b80821115610e26576000816000905550600101610e0e565b5090565b9056fea165627a7a7230582002caf343de58d3a6e1518470037e6c700ab61832d4a123e4735f7706aaa884820029",
  "source": "// SPDX-License-Identifier: MIT\r\npragma solidity >=0.4.22 <0.9.0;\r\n\r\ncontract ValAdemic {\r\n    struct Diploma {\r\n        string studentName;\r\n        string studentId; // Matricula do aluno\r\n        string institution;\r\n        uint date;\r\n        bytes32 diplomaHash;\r\n    }\r\n\r\n    mapping(bytes32 => Diploma) private diplomas;\r\n    mapping(string => mapping(string => bool)) private studentInstitutionIds; // Verificar a existencia de um diploma por matricula e instituicao\r\n\r\n    event DiplomaRegistered(bytes32 hash, string studentName, string institution, uint date, string studentId);\r\n\r\n    function generateDiplomaHash(string memory studentName, string memory studentId, string memory institution, uint date) private pure returns (bytes32) {\r\n        return keccak256(abi.encodePacked(studentName, studentId, institution, date));\r\n    }\r\n\r\n    function registerDiploma(string memory studentName, string memory studentId, string memory institution, uint date) public returns (string memory, bytes32) {\r\n        require(!studentInstitutionIds[studentId][institution], \"Diploma ja existe para este ID de estudante nesta instituicao.\");\r\n\r\n        bytes32 diplomaHash = generateDiplomaHash(studentName, studentId, institution, date);\r\n        diplomas[diplomaHash] = Diploma(studentName, studentId, institution, date, diplomaHash);\r\n        studentInstitutionIds[studentId][institution] = true;\r\n        emit DiplomaRegistered(diplomaHash, studentName, institution, date, studentId);\r\n        return (\"Diploma registrado com sucesso.\", diplomaHash);\r\n    }\r\n\r\n    function getDiploma(bytes32 hash) public view returns (string memory, string memory, string memory, uint) {\r\n        Diploma memory diploma = diplomas[hash];\r\n        require(bytes(diploma.studentName).length != 0, \"Diploma nao encontrado.\");\r\n        return (diploma.studentName, diploma.studentId, diploma.institution, diploma.date);\r\n    }\r\n}\r\n",
  "sourcePath": "C:\\PI\\Blockchain\\ValAdemic\\contracts\\ValAdemic.sol",
  "compiler": {
    "name": "solc",
    "version": "0.5.1+commit.c8a2cb62.Emscripten.clang"
  },
  "schemaVersion": "3.4.16",
  "updatedAt": "2024-06-07T02:26:51.025Z",
  "networkType": "ethereum",
  "devdoc": {
    "methods": {}
  },
  "userdoc": {
    "methods": {}
  }
}