{
  "contractName": "ValAdemic",
  "abi": [
    {
      "anonymous": false,
      "inputs": [
        {
          "indexed": false,
          "name": "hash",
          "type": "bytes32"
        },
        {
          "indexed": false,
          "name": "studentName",
          "type": "string"
        },
        {
          "indexed": false,
          "name": "institution",
          "type": "string"
        },
        {
          "indexed": false,
          "name": "date",
          "type": "uint256"
        },
        {
          "indexed": false,
          "name": "studentId",
          "type": "string"
        }
      ],
      "name": "DiplomaRegistered",
      "type": "event"
    },
    {
      "constant": false,
      "inputs": [
        {
          "name": "studentName",
          "type": "string"
        },
        {
          "name": "studentId",
          "type": "string"
        },
        {
          "name": "institution",
          "type": "string"
        },
        {
          "name": "date",
          "type": "uint256"
        }
      ],
      "name": "registerDiploma",
      "outputs": [
        {
          "name": "",
          "type": "string"
        },
        {
          "name": "",
          "type": "bytes32"
        }
      ],
      "payable": false,
      "stateMutability": "nonpayable",
      "type": "function"
    },
    {
      "constant": true,
      "inputs": [
        {
          "name": "hash",
          "type": "bytes32"
        }
      ],
      "name": "getDiploma",
      "outputs": [
        {
          "name": "",
          "type": "string"
        },
        {
          "name": "",
          "type": "string"
        },
        {
          "name": "",
          "type": "string"
        },
        {
          "name": "",
          "type": "uint256"
        }
      ],
      "payable": false,
      "stateMutability": "view",
      "type": "function"
    }
  ],
  "bytecode": "0x608060405234801561001057600080fd5b50610d87806100206000396000f3fe608060405260043610610046576000357c0100000000000000000000000000000000000000000000000000000000900480632b04cb771461004b57806365bb3ad9146101de575b600080fd5b34801561005757600080fd5b506100846004803603602081101561006e57600080fd5b810190808035906020019092919050505061045e565b60405180806020018060200180602001858152602001848103845288818151815260200191508051906020019080838360005b838110156100d25780820151818401526020810190506100b7565b50505050905090810190601f1680156100ff5780820380516001836020036101000a031916815260200191505b50848103835287818151815260200191508051906020019080838360005b8381101561013857808201518184015260208101905061011d565b50505050905090810190601f1680156101655780820380516001836020036101000a031916815260200191505b50848103825286818151815260200191508051906020019080838360005b8381101561019e578082015181840152602081019050610183565b50505050905090810190601f1680156101cb5780820380516001836020036101000a031916815260200191505b5097505050505050505060405180910390f35b3480156101ea57600080fd5b506103dc6004803603608081101561020157600080fd5b810190808035906020019064010000000081111561021e57600080fd5b82018360208201111561023057600080fd5b8035906020019184600183028401116401000000008311171561025257600080fd5b91908080601f016020809104026020016040519081016040528093929190818152602001838380828437600081840152601f19601f820116905080830192505050505050509192919290803590602001906401000000008111156102b557600080fd5b8201836020820111156102c757600080fd5b803590602001918460018302840111640100000000831117156102e957600080fd5b91908080601f016020809104026020016040519081016040528093929190818152602001838380828437600081840152601f19601f8201169050808301925050505050505091929192908035906020019064010000000081111561034c57600080fd5b82018360208201111561035e57600080fd5b8035906020019184600183028401116401000000008311171561038057600080fd5b91908080601f016020809104026020016040519081016040528093929190818152602001838380828437600081840152601f19601f82011690508083019250505050505050919291929080359060200190929190505050610732565b6040518080602001838152602001828103825284818151815260200191508051906020019080838360005b83811015610422578082015181840152602081019050610407565b50505050905090810190601f16801561044f5780820380516001836020036101000a031916815260200191505b50935050505060405180910390f35b6060806060600061046d610c83565b60008087815260200190815260200160002060a06040519081016040529081600082018054600181600116156101000203166002900480601f0160208091040260200160405190810160405280929190818152602001828054600181600116156101000203166002900480156105245780601f106104f957610100808354040283529160200191610524565b820191906000526020600020905b81548152906001019060200180831161050757829003601f168201915b50505050508152602001600182018054600181600116156101000203166002900480601f0160208091040260200160405190810160405280929190818152602001828054600181600116156101000203166002900480156105c65780601f1061059b576101008083540402835291602001916105c6565b820191906000526020600020905b8154815290600101906020018083116105a957829003601f168201915b50505050508152602001600282018054600181600116156101000203166002900480601f0160208091040260200160405190810160405280929190818152602001828054600181600116156101000203166002900480156106685780601f1061063d57610100808354040283529160200191610668565b820191906000526020600020905b81548152906001019060200180831161064b57829003601f168201915b50505050508152602001600382015481526020016004820154815250509050600081600001515114151515610705576040517f08c379a00000000000000000000000000000000000000000000000000000000081526004018080602001828103825260178152602001807f4469706c6f6d61206e616f20656e636f6e747261646f2e00000000000000000081525060200191505060405180910390fd5b80600001518160200151826040015183606001518393508292508191509450945094509450509193509193565b606060006001856040518082805190602001908083835b60208310151561076e5780518252602082019150602081019050602083039250610749565b6001836020036101000a038019825116818451168082178552505050505050905001915050908152602001604051809103902060009054906101000a900460ff1615151561084a576040517f08c379a000000000000000000000000000000000000000000000000000000000815260040180806020018281038252602c8152602001807f4469706c6f6d61206a612065786973746520706172612065737465204944206481526020017f65206573747564616e74652e000000000000000000000000000000000000000081525060400191505060405180910390fd5b600061085887878787610b51565b905060a0604051908101604052808881526020018781526020018681526020018581526020018281525060008083815260200190815260200160002060008201518160000190805190602001906108b0929190610cb6565b5060208201518160010190805190602001906108cd929190610cb6565b5060408201518160020190805190602001906108ea929190610cb6565b506060820151816003015560808201518160040155905050600180876040518082805190602001908083835b60208310151561093b5780518252602082019150602081019050602083039250610916565b6001836020036101000a038019825116818451168082178552505050505050905001915050908152602001604051809103902060006101000a81548160ff0219169083151502179055507fa584ab88e004f334d178b821fb701df554b2f7e168c93a461fecd1c814785576818887878a60405180868152602001806020018060200185815260200180602001848103845288818151815260200191508051906020019080838360005b838110156109ff5780820151818401526020810190506109e4565b50505050905090810190601f168015610a2c5780820380516001836020036101000a031916815260200191505b50848103835287818151815260200191508051906020019080838360005b83811015610a65578082015181840152602081019050610a4a565b50505050905090810190601f168015610a925780820380516001836020036101000a031916815260200191505b50848103825285818151815260200191508051906020019080838360005b83811015610acb578082015181840152602081019050610ab0565b50505050905090810190601f168015610af85780820380516001836020036101000a031916815260200191505b509850505050505050505060405180910390a1806040805190810160405280601f81526020017f4469706c6f6d61207265676973747261646f20636f6d207375636573736f2e0081525090925092505094509492505050565b6000848484846040516020018085805190602001908083835b602083101515610b8f5780518252602082019150602081019050602083039250610b6a565b6001836020036101000a03801982511681845116808217855250505050505090500184805190602001908083835b602083101515610be25780518252602082019150602081019050602083039250610bbd565b6001836020036101000a03801982511681845116808217855250505050505090500183805190602001908083835b602083101515610c355780518252602082019150602081019050602083039250610c10565b6001836020036101000a038019825116818451168082178552505050505050905001828152602001945050505050604051602081830303815290604052805190602001209050949350505050565b60a06040519081016040528060608152602001606081526020016060815260200160008152602001600080191681525090565b828054600181600116156101000203166002900490600052602060002090601f016020900481019282601f10610cf757805160ff1916838001178555610d25565b82800160010185558215610d25579182015b82811115610d24578251825591602001919060010190610d09565b5b509050610d329190610d36565b5090565b610d5891905b80821115610d54576000816000905550600101610d3c565b5090565b9056fea165627a7a72305820ce43fd92cbd0cebb34df6ebd53628e60e48ce9c3c3366f9a0c14b439883bcb8c0029",
  "source": "// SPDX-License-Identifier: MIT\r\npragma solidity >=0.4.22 <0.9.0;\r\n\r\ncontract ValAdemic {\r\n    struct Diploma {\r\n        string studentName;\r\n        string studentId; // Matricula do aluno\r\n        string institution;\r\n        uint date;\r\n        bytes32 diplomaHash;\r\n    }\r\n\r\n    mapping(bytes32 => Diploma) private diplomas;\r\n    mapping(string => bool) private studentIds; // Para verificar a existencia de um diploma por matricula\r\n\r\n    event DiplomaRegistered(bytes32 hash, string studentName, string institution, uint date, string studentId);\r\n\r\n    function generateDiplomaHash(string memory studentName, string memory studentId, string memory institution, uint date) private pure returns (bytes32) {\r\n        return keccak256(abi.encodePacked(studentName, studentId, institution, date));\r\n    }\r\n\r\n    function registerDiploma(string memory studentName, string memory studentId, string memory institution, uint date) public returns (string memory, bytes32) {\r\n        require(!studentIds[studentId], \"Diploma ja existe para este ID de estudante.\");\r\n\r\n        bytes32 diplomaHash = generateDiplomaHash(studentName, studentId, institution, date);\r\n        diplomas[diplomaHash] = Diploma(studentName, studentId, institution, date, diplomaHash);\r\n        studentIds[studentId] = true;\r\n        emit DiplomaRegistered(diplomaHash, studentName, institution, date, studentId);\r\n        return (\"Diploma registrado com sucesso.\", diplomaHash);\r\n    }\r\n\r\n    function getDiploma(bytes32 hash) public view returns (string memory, string memory, string memory, uint) {\r\n        Diploma memory diploma = diplomas[hash];\r\n        require(bytes(diploma.studentName).length != 0, \"Diploma nao encontrado.\");\r\n        return (diploma.studentName, diploma.studentId, diploma.institution, diploma.date);\r\n    }\r\n}\r\n",
  "sourcePath": "C:\\PI\\Blockchain\\ValAdemic\\contracts\\ValAdemic.sol",
  "compiler": {
    "name": "solc",
    "version": "0.5.1+commit.c8a2cb62.Emscripten.clang"
  },
  "schemaVersion": "3.4.16",
  "updatedAt": "2024-05-28T01:10:58.065Z",
  "networkType": "ethereum",
  "devdoc": {
    "methods": {}
  },
  "userdoc": {
    "methods": {}
  }
}